{
  "contractName": "TodoList",
  "abi": [
    {
      "inputs": [],
      "stateMutability": "nonpayable",
      "type": "constructor"
    },
    {
      "anonymous": false,
      "inputs": [
        {
          "indexed": false,
          "internalType": "uint256",
          "name": "id",
          "type": "uint256"
        },
        {
          "indexed": false,
          "internalType": "string",
          "name": "content",
          "type": "string"
        },
        {
          "indexed": false,
          "internalType": "bool",
          "name": "completed",
          "type": "bool"
        },
        {
          "indexed": false,
          "internalType": "uint256",
          "name": "timestamp",
          "type": "uint256"
        },
        {
          "indexed": false,
          "internalType": "string",
          "name": "role",
          "type": "string"
        }
      ],
      "name": "TaskCreated",
      "type": "event"
    },
    {
      "anonymous": false,
      "inputs": [
        {
          "indexed": false,
          "internalType": "uint256",
          "name": "id",
          "type": "uint256"
        },
        {
          "indexed": false,
          "internalType": "bool",
          "name": "completed",
          "type": "bool"
        }
      ],
      "name": "TaskToggled",
      "type": "event"
    },
    {
      "inputs": [],
      "name": "taskCount",
      "outputs": [
        {
          "internalType": "uint256",
          "name": "",
          "type": "uint256"
        }
      ],
      "stateMutability": "view",
      "type": "function",
      "constant": true
    },
    {
      "inputs": [
        {
          "internalType": "uint256",
          "name": "",
          "type": "uint256"
        }
      ],
      "name": "tasks",
      "outputs": [
        {
          "internalType": "uint256",
          "name": "id",
          "type": "uint256"
        },
        {
          "internalType": "string",
          "name": "content",
          "type": "string"
        },
        {
          "internalType": "bool",
          "name": "completed",
          "type": "bool"
        },
        {
          "internalType": "uint256",
          "name": "timestamp",
          "type": "uint256"
        },
        {
          "internalType": "string",
          "name": "role",
          "type": "string"
        }
      ],
      "stateMutability": "view",
      "type": "function",
      "constant": true
    },
    {
      "inputs": [
        {
          "internalType": "string",
          "name": "_content",
          "type": "string"
        },
        {
          "internalType": "string",
          "name": "_role",
          "type": "string"
        }
      ],
      "name": "createTask",
      "outputs": [],
      "stateMutability": "nonpayable",
      "type": "function"
    },
    {
      "inputs": [
        {
          "internalType": "uint256",
          "name": "_taskId",
          "type": "uint256"
        }
      ],
      "name": "toggleCompleted",
      "outputs": [],
      "stateMutability": "nonpayable",
      "type": "function"
    }
  ],
  "bytecode": "0x6080604052600080553480156200001557600080fd5b50620000926040518060400160405280602081526020017f43686566205461736b20313a205072657061726520696e6772656469656e74738152506040518060400160405280600481526020017f63686566000000000000000000000000000000000000000000000000000000008152506200020c60201b60201c565b6200010e6040518060400160405280601d81526020017f43686566205461736b20323a20436f6f6b206d61696e20636f757273650000008152506040518060400160405280600481526020017f63686566000000000000000000000000000000000000000000000000000000008152506200020c60201b60201c565b6200018a6040518060400160405280601681526020017f4b50205461736b20313a205761736820646973686573000000000000000000008152506040518060400160405280600281526020017f6b700000000000000000000000000000000000000000000000000000000000008152506200020c60201b60201c565b620002066040518060400160405280601881526020017f4b50205461736b20323a20436c65616e206b69746368656e00000000000000008152506040518060400160405280600281526020017f6b700000000000000000000000000000000000000000000000000000000000008152506200020c60201b60201c565b62000819565b60008081548092919062000220906200034d565b91905055506040518060a0016040528060005481526020018381526020016000151581526020014281526020018281525060016000805481526020019081526020016000206000820151816000015560208201518160010190816200028691906200060a565b5060408201518160020160006101000a81548160ff021916908315150217905550606082015181600301556080820151816004019081620002c891906200060a565b509050507fc0fff5fe410bab0f97e0eeb8265e99dce003dda2e7cba71662624cc2e81c7e6b600054836000428560405162000308959493929190620007ae565b60405180910390a15050565b7f4e487b7100000000000000000000000000000000000000000000000000000000600052601160045260246000fd5b6000819050919050565b60006200035a8262000343565b91507fffffffffffffffffffffffffffffffffffffffffffffffffffffffffffffffff82036200038f576200038e62000314565b5b600182019050919050565b600081519050919050565b7f4e487b7100000000000000000000000000000000000000000000000000000000600052604160045260246000fd5b7f4e487b7100000000000000000000000000000000000000000000000000000000600052602260045260246000fd5b600060028204905060018216806200041c57607f821691505b602082108103620004325762000431620003d4565b5b50919050565b60008190508160005260206000209050919050565b60006020601f8301049050919050565b600082821b905092915050565b6000600883026200049c7fffffffffffffffffffffffffffffffffffffffffffffffffffffffffffffffff826200045d565b620004a886836200045d565b95508019841693508086168417925050509392505050565b6000819050919050565b6000620004eb620004e5620004df8462000343565b620004c0565b62000343565b9050919050565b6000819050919050565b6200050783620004ca565b6200051f6200051682620004f2565b8484546200046a565b825550505050565b600090565b6200053662000527565b62000543818484620004fc565b505050565b5b818110156200056b576200055f6000826200052c565b60018101905062000549565b5050565b601f821115620005ba57620005848162000438565b6200058f846200044d565b810160208510156200059f578190505b620005b7620005ae856200044d565b83018262000548565b50505b505050565b600082821c905092915050565b6000620005df60001984600802620005bf565b1980831691505092915050565b6000620005fa8383620005cc565b9150826002028217905092915050565b62000615826200039a565b67ffffffffffffffff811115620006315762000630620003a5565b5b6200063d825462000403565b6200064a8282856200056f565b600060209050601f8311600181146200068257600084156200066d578287015190505b620006798582620005ec565b865550620006e9565b601f198416620006928662000438565b60005b82811015620006bc5784890151825560018201915060208501945060208101905062000695565b86831015620006dc5784890151620006d8601f891682620005cc565b8355505b6001600288020188555050505b505050505050565b620006fc8162000343565b82525050565b600082825260208201905092915050565b60005b838110156200073357808201518184015260208101905062000716565b60008484015250505050565b6000601f19601f8301169050919050565b60006200075d826200039a565b62000769818562000702565b93506200077b81856020860162000713565b62000786816200073f565b840191505092915050565b60008115159050919050565b620007a88162000791565b82525050565b600060a082019050620007c56000830188620006f1565b8181036020830152620007d9818762000750565b9050620007ea60408301866200079d565b620007f96060830185620006f1565b81810360808301526200080d818462000750565b90509695505050505050565b610ad580620008296000396000f3fe608060405234801561001057600080fd5b506004361061004c5760003560e01c8063292a458514610051578063455f50241461006d5780638d97767214610089578063b6cb58a5146100bd575b600080fd5b61006b60048036038101906100669190610521565b6100db565b005b610087600480360381019061008291906105cf565b6101db565b005b6100a3600480360381019061009e91906105cf565b61026e565b6040516100b49594939291906106a5565b60405180910390f35b6100c56103c1565b6040516100d29190610706565b60405180910390f35b6000808154809291906100ed90610750565b91905055506040518060a00160405280600054815260200183815260200160001515815260200142815260200182815250600160008054815260200190815260200160002060008201518160000155602082015181600101908161015191906109a4565b5060408201518160020160006101000a81548160ff02191690831515021790555060608201518160030155608082015181600401908161019191906109a4565b509050507fc0fff5fe410bab0f97e0eeb8265e99dce003dda2e7cba71662624cc2e81c7e6b60005483600042856040516101cf9594939291906106a5565b60405180910390a15050565b60006001600083815260200190815260200160002090508060020160009054906101000a900460ff16158160020160006101000a81548160ff0219169083151502179055507fe668c7a227d9261aa1f964bf5a852ab642446a7af6c29405caf8d0e9ce2c11f0828260020160009054906101000a900460ff16604051610262929190610a76565b60405180910390a15050565b6001602052806000526040600020600091509050806000015490806001018054610297906107c7565b80601f01602080910402602001604051908101604052809291908181526020018280546102c3906107c7565b80156103105780601f106102e557610100808354040283529160200191610310565b820191906000526020600020905b8154815290600101906020018083116102f357829003601f168201915b5050505050908060020160009054906101000a900460ff169080600301549080600401805461033e906107c7565b80601f016020809104026020016040519081016040528092919081815260200182805461036a906107c7565b80156103b75780601f1061038c576101008083540402835291602001916103b7565b820191906000526020600020905b81548152906001019060200180831161039a57829003601f168201915b5050505050905085565b60005481565b6000604051905090565b600080fd5b600080fd5b600080fd5b600080fd5b6000601f19601f8301169050919050565b7f4e487b7100000000000000000000000000000000000000000000000000000000600052604160045260246000fd5b61042e826103e5565b810181811067ffffffffffffffff8211171561044d5761044c6103f6565b5b80604052505050565b60006104606103c7565b905061046c8282610425565b919050565b600067ffffffffffffffff82111561048c5761048b6103f6565b5b610495826103e5565b9050602081019050919050565b82818337600083830152505050565b60006104c46104bf84610471565b610456565b9050828152602081018484840111156104e0576104df6103e0565b5b6104eb8482856104a2565b509392505050565b600082601f830112610508576105076103db565b5b81356105188482602086016104b1565b91505092915050565b60008060408385031215610538576105376103d1565b5b600083013567ffffffffffffffff811115610556576105556103d6565b5b610562858286016104f3565b925050602083013567ffffffffffffffff811115610583576105826103d6565b5b61058f858286016104f3565b9150509250929050565b6000819050919050565b6105ac81610599565b81146105b757600080fd5b50565b6000813590506105c9816105a3565b92915050565b6000602082840312156105e5576105e46103d1565b5b60006105f3848285016105ba565b91505092915050565b61060581610599565b82525050565b600081519050919050565b600082825260208201905092915050565b60005b8381101561064557808201518184015260208101905061062a565b60008484015250505050565b600061065c8261060b565b6106668185610616565b9350610676818560208601610627565b61067f816103e5565b840191505092915050565b60008115159050919050565b61069f8161068a565b82525050565b600060a0820190506106ba60008301886105fc565b81810360208301526106cc8187610651565b90506106db6040830186610696565b6106e860608301856105fc565b81810360808301526106fa8184610651565b90509695505050505050565b600060208201905061071b60008301846105fc565b92915050565b7f4e487b7100000000000000000000000000000000000000000000000000000000600052601160045260246000fd5b600061075b82610599565b91507fffffffffffffffffffffffffffffffffffffffffffffffffffffffffffffffff820361078d5761078c610721565b5b600182019050919050565b7f4e487b7100000000000000000000000000000000000000000000000000000000600052602260045260246000fd5b600060028204905060018216806107df57607f821691505b6020821081036107f2576107f1610798565b5b50919050565b60008190508160005260206000209050919050565b60006020601f8301049050919050565b600082821b905092915050565b60006008830261085a7fffffffffffffffffffffffffffffffffffffffffffffffffffffffffffffffff8261081d565b610864868361081d565b95508019841693508086168417925050509392505050565b6000819050919050565b60006108a161089c61089784610599565b61087c565b610599565b9050919050565b6000819050919050565b6108bb83610886565b6108cf6108c7826108a8565b84845461082a565b825550505050565b600090565b6108e46108d7565b6108ef8184846108b2565b505050565b5b81811015610913576109086000826108dc565b6001810190506108f5565b5050565b601f82111561095857610929816107f8565b6109328461080d565b81016020851015610941578190505b61095561094d8561080d565b8301826108f4565b50505b505050565b600082821c905092915050565b600061097b6000198460080261095d565b1980831691505092915050565b6000610994838361096a565b9150826002028217905092915050565b6109ad8261060b565b67ffffffffffffffff8111156109c6576109c56103f6565b5b6109d082546107c7565b6109db828285610917565b600060209050601f831160018114610a0e57600084156109fc578287015190505b610a068582610988565b865550610a6e565b601f198416610a1c866107f8565b60005b82811015610a4457848901518255600182019150602085019450602081019050610a1f565b86831015610a615784890151610a5d601f89168261096a565b8355505b6001600288020188555050505b505050505050565b6000604082019050610a8b60008301856105fc565b610a986020830184610696565b939250505056fea2646970667358221220011744246a8eaadd272eca18be611934b994d6d50992e7fd5532579de32be9be64736f6c63430008130033",
  "immutableReferences": {},
  "source": "// SPDX-License-Identifier: MIT\r\npragma solidity ^0.8.0;\r\n\r\ncontract TodoList {\r\n    uint public taskCount = 0;\r\n\r\n    struct Task {\r\n        uint id;\r\n        string content;\r\n        bool completed;\r\n        uint timestamp;\r\n        string role; // \"chef\" or \"kp\"\r\n    }\r\n\r\n    mapping(uint => Task) public tasks;\r\n\r\n    event TaskCreated(\r\n        uint id,\r\n        string content,\r\n        bool completed,\r\n        uint timestamp,\r\n        string role\r\n    );\r\n\r\n    event TaskToggled(\r\n        uint id,\r\n        bool completed\r\n    );\r\n\r\n   constructor() {\r\n        // Create two default tasks for Chef\r\n        createTask(\"Chef Task 1: Prepare ingredients\", \"chef\");\r\n        createTask(\"Chef Task 2: Cook main course\", \"chef\");\r\n        // Create two default tasks for Kitchen Porter (KP)\r\n        createTask(\"KP Task 1: Wash dishes\", \"kp\");\r\n        createTask(\"KP Task 2: Clean kitchen\", \"kp\");\r\n    }\r\n\r\n\r\n    function createTask(string memory _content, string memory _role) public {\r\n        taskCount++;\r\n        tasks[taskCount] = Task(taskCount, _content, false, block.timestamp, _role);\r\n        emit TaskCreated(taskCount, _content, false, block.timestamp, _role);\r\n    }\r\n\r\n    function toggleCompleted(uint _taskId) public {\r\n        Task storage task = tasks[_taskId];\r\n        task.completed = !task.completed;\r\n        emit TaskToggled(_taskId, task.completed);\r\n    }\r\n}\r\n",
  "sourcePath": "C:\\Users\\sunil\\OneDrive\\Desktop\\To_do_DAPP\\contracts\\TodoList.sol",
  "compiler": {
    "name": "solc",
    "version": "0.8.19+commit.7dd6d404.Emscripten.clang"
  },
  "schemaVersion": "3.4.16",
  "updatedAt": "2025-03-31T13:03:17.885Z",
  "networkType": "ethereum",
  "devdoc": {
    "kind": "dev",
    "methods": {},
    "version": 1
  },
  "userdoc": {
    "kind": "user",
    "methods": {},
    "version": 1
  }
}