{
  "contractName": "TodoList",
  "abi": [
    {
      "inputs": [],
      "stateMutability": "nonpayable",
      "type": "constructor"
    },
    {
      "anonymous": false,
      "inputs": [
        {
          "indexed": false,
          "internalType": "uint256",
          "name": "id",
          "type": "uint256"
        },
        {
          "indexed": false,
          "internalType": "string",
          "name": "content",
          "type": "string"
        },
        {
          "indexed": false,
          "internalType": "bool",
          "name": "completed",
          "type": "bool"
        },
        {
          "indexed": false,
          "internalType": "uint256",
          "name": "timestamp",
          "type": "uint256"
        },
        {
          "indexed": false,
          "internalType": "string",
          "name": "role",
          "type": "string"
        },
        {
          "indexed": false,
          "internalType": "string",
          "name": "completedBy",
          "type": "string"
        }
      ],
      "name": "TaskCreated",
      "type": "event"
    },
    {
      "anonymous": false,
      "inputs": [
        {
          "indexed": false,
          "internalType": "uint256",
          "name": "id",
          "type": "uint256"
        },
        {
          "indexed": false,
          "internalType": "string",
          "name": "content",
          "type": "string"
        },
        {
          "indexed": false,
          "internalType": "bool",
          "name": "completed",
          "type": "bool"
        },
        {
          "indexed": false,
          "internalType": "uint256",
          "name": "timestamp",
          "type": "uint256"
        },
        {
          "indexed": false,
          "internalType": "string",
          "name": "role",
          "type": "string"
        },
        {
          "indexed": false,
          "internalType": "string",
          "name": "completedBy",
          "type": "string"
        }
      ],
      "name": "TaskToggled",
      "type": "event"
    },
    {
      "inputs": [],
      "name": "taskCount",
      "outputs": [
        {
          "internalType": "uint256",
          "name": "",
          "type": "uint256"
        }
      ],
      "stateMutability": "view",
      "type": "function",
      "constant": true
    },
    {
      "inputs": [
        {
          "internalType": "uint256",
          "name": "",
          "type": "uint256"
        }
      ],
      "name": "tasks",
      "outputs": [
        {
          "internalType": "uint256",
          "name": "id",
          "type": "uint256"
        },
        {
          "internalType": "string",
          "name": "content",
          "type": "string"
        },
        {
          "internalType": "bool",
          "name": "completed",
          "type": "bool"
        },
        {
          "internalType": "uint256",
          "name": "timestamp",
          "type": "uint256"
        },
        {
          "internalType": "string",
          "name": "role",
          "type": "string"
        },
        {
          "internalType": "string",
          "name": "completedBy",
          "type": "string"
        }
      ],
      "stateMutability": "view",
      "type": "function",
      "constant": true
    },
    {
      "inputs": [
        {
          "internalType": "string",
          "name": "_content",
          "type": "string"
        },
        {
          "internalType": "string",
          "name": "_role",
          "type": "string"
        }
      ],
      "name": "createTask",
      "outputs": [],
      "stateMutability": "nonpayable",
      "type": "function"
    },
    {
      "inputs": [
        {
          "internalType": "uint256",
          "name": "_taskId",
          "type": "uint256"
        },
        {
          "internalType": "string",
          "name": "_completedBy",
          "type": "string"
        }
      ],
      "name": "toggleCompleted",
      "outputs": [],
      "stateMutability": "nonpayable",
      "type": "function"
    }
  ],
  "bytecode": "0x6080604052600080553480156200001557600080fd5b50620000926040518060400160405280602081526020017f43686566205461736b20313a205072657061726520696e6772656469656e74738152506040518060400160405280600481526020017f6368656600000000000000000000000000000000000000000000000000000000815250620004bc60201b60201c565b6200010e6040518060400160405280601d81526020017f43686566205461736b20323a20436f6f6b206d61696e20636f757273650000008152506040518060400160405280600481526020017f6368656600000000000000000000000000000000000000000000000000000000815250620004bc60201b60201c565b6200018a6040518060400160405280601b81526020017f43686566205461736b20333a204761726e6973682064697368657300000000008152506040518060400160405280600481526020017f6368656600000000000000000000000000000000000000000000000000000000815250620004bc60201b60201c565b620001ea6040518060600160405280602281526020016200193a602291396040518060400160405280600481526020017f6368656600000000000000000000000000000000000000000000000000000000815250620004bc60201b60201c565b620002666040518060400160405280601c81526020017f43686566205461736b20353a20507265706172652064657373657274000000008152506040518060400160405280600481526020017f6368656600000000000000000000000000000000000000000000000000000000815250620004bc60201b60201c565b620002e26040518060400160405280601681526020017f4b50205461736b20313a205761736820646973686573000000000000000000008152506040518060400160405280600281526020017f6b70000000000000000000000000000000000000000000000000000000000000815250620004bc60201b60201c565b6200034260405180606001604052806021815260200162001919602191396040518060400160405280600281526020017f6b70000000000000000000000000000000000000000000000000000000000000815250620004bc60201b60201c565b620003be6040518060400160405280601981526020017f4b50205461736b20333a2054616b65206f7574207472617368000000000000008152506040518060400160405280600281526020017f6b70000000000000000000000000000000000000000000000000000000000000815250620004bc60201b60201c565b6200043a6040518060400160405280601981526020017f4b50205461736b20343a204d6f702074686520666c6f6f7273000000000000008152506040518060400160405280600281526020017f6b70000000000000000000000000000000000000000000000000000000000000815250620004bc60201b60201c565b620004b66040518060400160405280601c81526020017f4b50205461736b20353a204f7267616e697a65206469736877617265000000008152506040518060400160405280600281526020017f6b70000000000000000000000000000000000000000000000000000000000000815250620004bc60201b60201c565b62000b35565b600080815480929190620004d0906200062a565b91905055506040518060c0016040528060005481526020018381526020016000151581526020014281526020018281526020016040518060200160405280600081525081525060016000805481526020019081526020016000206000820151816000015560208201518160010190816200054b9190620008e7565b5060408201518160020160006101000a81548160ff0219169083151502179055506060820151816003015560808201518160040190816200058d9190620008e7565b5060a0820151816005019081620005a59190620008e7565b509050507f14dc8203f42b5911f808aa36b961e66f38e8be6afa0c3a3f519428d4917ad9a46000548360004285604051620005e595949392919062000ab5565b60405180910390a15050565b7f4e487b7100000000000000000000000000000000000000000000000000000000600052601160045260246000fd5b6000819050919050565b6000620006378262000620565b91507fffffffffffffffffffffffffffffffffffffffffffffffffffffffffffffffff82036200066c576200066b620005f1565b5b600182019050919050565b600081519050919050565b7f4e487b7100000000000000000000000000000000000000000000000000000000600052604160045260246000fd5b7f4e487b7100000000000000000000000000000000000000000000000000000000600052602260045260246000fd5b60006002820490506001821680620006f957607f821691505b6020821081036200070f576200070e620006b1565b5b50919050565b60008190508160005260206000209050919050565b60006020601f8301049050919050565b600082821b905092915050565b600060088302620007797fffffffffffffffffffffffffffffffffffffffffffffffffffffffffffffffff826200073a565b6200078586836200073a565b95508019841693508086168417925050509392505050565b6000819050919050565b6000620007c8620007c2620007bc8462000620565b6200079d565b62000620565b9050919050565b6000819050919050565b620007e483620007a7565b620007fc620007f382620007cf565b84845462000747565b825550505050565b600090565b6200081362000804565b62000820818484620007d9565b505050565b5b8181101562000848576200083c60008262000809565b60018101905062000826565b5050565b601f8211156200089757620008618162000715565b6200086c846200072a565b810160208510156200087c578190505b620008946200088b856200072a565b83018262000825565b50505b505050565b600082821c905092915050565b6000620008bc600019846008026200089c565b1980831691505092915050565b6000620008d78383620008a9565b9150826002028217905092915050565b620008f28262000677565b67ffffffffffffffff8111156200090e576200090d62000682565b5b6200091a8254620006e0565b620009278282856200084c565b600060209050601f8311600181146200095f57600084156200094a578287015190505b620009568582620008c9565b865550620009c6565b601f1984166200096f8662000715565b60005b82811015620009995784890151825560018201915060208501945060208101905062000972565b86831015620009b95784890151620009b5601f891682620008a9565b8355505b6001600288020188555050505b505050505050565b620009d98162000620565b82525050565b600082825260208201905092915050565b60005b8381101562000a10578082015181840152602081019050620009f3565b60008484015250505050565b6000601f19601f8301169050919050565b600062000a3a8262000677565b62000a468185620009df565b935062000a58818560208601620009f0565b62000a638162000a1c565b840191505092915050565b60008115159050919050565b62000a858162000a6e565b82525050565b50565b600062000a9d600083620009df565b915062000aaa8262000a8b565b600082019050919050565b600060c08201905062000acc6000830188620009ce565b818103602083015262000ae0818762000a2d565b905062000af1604083018662000a7a565b62000b006060830185620009ce565b818103608083015262000b14818462000a2d565b905081810360a083015262000b298162000a8e565b90509695505050505050565b610dd48062000b456000396000f3fe608060405234801561001057600080fd5b506004361061004c5760003560e01c8063292a4585146100515780638d9776721461006d578063b6cb58a5146100a2578063e2377aab146100c0575b600080fd5b61006b60048036038101906100669190610644565b6100dc565b005b610087600480360381019061008291906106f2565b610207565b604051610099969594939291906107c8565b60405180910390f35b6100aa6103e8565b6040516100b7919061083e565b60405180910390f35b6100da60048036038101906100d59190610859565b6103ee565b005b6000808154809291906100ee906108e4565b91905055506040518060c0016040528060005481526020018381526020016000151581526020014281526020018281526020016040518060200160405280600081525081525060016000805481526020019081526020016000206000820151816000015560208201518160010190816101679190610b38565b5060408201518160020160006101000a81548160ff0219169083151502179055506060820151816003015560808201518160040190816101a79190610b38565b5060a08201518160050190816101bd9190610b38565b509050507f14dc8203f42b5911f808aa36b961e66f38e8be6afa0c3a3f519428d4917ad9a460005483600042856040516101fb959493929190610c30565b60405180910390a15050565b60016020528060005260406000206000915090508060000154908060010180546102309061095b565b80601f016020809104026020016040519081016040528092919081815260200182805461025c9061095b565b80156102a95780601f1061027e576101008083540402835291602001916102a9565b820191906000526020600020905b81548152906001019060200180831161028c57829003601f168201915b5050505050908060020160009054906101000a900460ff16908060030154908060040180546102d79061095b565b80601f01602080910402602001604051908101604052809291908181526020018280546103039061095b565b80156103505780601f1061032557610100808354040283529160200191610350565b820191906000526020600020905b81548152906001019060200180831161033357829003601f168201915b5050505050908060050180546103659061095b565b80601f01602080910402602001604051908101604052809291908181526020018280546103919061095b565b80156103de5780601f106103b3576101008083540402835291602001916103de565b820191906000526020600020905b8154815290600101906020018083116103c157829003601f168201915b5050505050905086565b60005481565b60006001600084815260200190815260200160002090508060020160009054906101000a900460ff16158160020160006101000a81548160ff0219169083151502179055508060020160009054906101000a900460ff1615610461578181600501908161045b9190610b38565b50610483565b604051806020016040528060008152508160050190816104819190610b38565b505b7e87c20f08678f70160a0f6d1f39b37f47162ab3c2d3ad4dd628d283993d0c048160000154826001018360020160009054906101000a900460ff16846003015485600401866005016040516104dd96959493929190610d28565b60405180910390a1505050565b6000604051905090565b600080fd5b600080fd5b600080fd5b600080fd5b6000601f19601f8301169050919050565b7f4e487b7100000000000000000000000000000000000000000000000000000000600052604160045260246000fd5b61055182610508565b810181811067ffffffffffffffff821117156105705761056f610519565b5b80604052505050565b60006105836104ea565b905061058f8282610548565b919050565b600067ffffffffffffffff8211156105af576105ae610519565b5b6105b882610508565b9050602081019050919050565b82818337600083830152505050565b60006105e76105e284610594565b610579565b90508281526020810184848401111561060357610602610503565b5b61060e8482856105c5565b509392505050565b600082601f83011261062b5761062a6104fe565b5b813561063b8482602086016105d4565b91505092915050565b6000806040838503121561065b5761065a6104f4565b5b600083013567ffffffffffffffff811115610679576106786104f9565b5b61068585828601610616565b925050602083013567ffffffffffffffff8111156106a6576106a56104f9565b5b6106b285828601610616565b9150509250929050565b6000819050919050565b6106cf816106bc565b81146106da57600080fd5b50565b6000813590506106ec816106c6565b92915050565b600060208284031215610708576107076104f4565b5b6000610716848285016106dd565b91505092915050565b610728816106bc565b82525050565b600081519050919050565b600082825260208201905092915050565b60005b8381101561076857808201518184015260208101905061074d565b60008484015250505050565b600061077f8261072e565b6107898185610739565b935061079981856020860161074a565b6107a281610508565b840191505092915050565b60008115159050919050565b6107c2816107ad565b82525050565b600060c0820190506107dd600083018961071f565b81810360208301526107ef8188610774565b90506107fe60408301876107b9565b61080b606083018661071f565b818103608083015261081d8185610774565b905081810360a08301526108318184610774565b9050979650505050505050565b6000602082019050610853600083018461071f565b92915050565b600080604083850312156108705761086f6104f4565b5b600061087e858286016106dd565b925050602083013567ffffffffffffffff81111561089f5761089e6104f9565b5b6108ab85828601610616565b9150509250929050565b7f4e487b7100000000000000000000000000000000000000000000000000000000600052601160045260246000fd5b60006108ef826106bc565b91507fffffffffffffffffffffffffffffffffffffffffffffffffffffffffffffffff8203610921576109206108b5565b5b600182019050919050565b7f4e487b7100000000000000000000000000000000000000000000000000000000600052602260045260246000fd5b6000600282049050600182168061097357607f821691505b6020821081036109865761098561092c565b5b50919050565b60008190508160005260206000209050919050565b60006020601f8301049050919050565b600082821b905092915050565b6000600883026109ee7fffffffffffffffffffffffffffffffffffffffffffffffffffffffffffffffff826109b1565b6109f886836109b1565b95508019841693508086168417925050509392505050565b6000819050919050565b6000610a35610a30610a2b846106bc565b610a10565b6106bc565b9050919050565b6000819050919050565b610a4f83610a1a565b610a63610a5b82610a3c565b8484546109be565b825550505050565b600090565b610a78610a6b565b610a83818484610a46565b505050565b5b81811015610aa757610a9c600082610a70565b600181019050610a89565b5050565b601f821115610aec57610abd8161098c565b610ac6846109a1565b81016020851015610ad5578190505b610ae9610ae1856109a1565b830182610a88565b50505b505050565b600082821c905092915050565b6000610b0f60001984600802610af1565b1980831691505092915050565b6000610b288383610afe565b9150826002028217905092915050565b610b418261072e565b67ffffffffffffffff811115610b5a57610b59610519565b5b610b64825461095b565b610b6f828285610aab565b600060209050601f831160018114610ba25760008415610b90578287015190505b610b9a8582610b1c565b865550610c02565b601f198416610bb08661098c565b60005b82811015610bd857848901518255600182019150602085019450602081019050610bb3565b86831015610bf55784890151610bf1601f891682610afe565b8355505b6001600288020188555050505b505050505050565b50565b6000610c1a600083610739565b9150610c2582610c0a565b600082019050919050565b600060c082019050610c45600083018861071f565b8181036020830152610c578187610774565b9050610c6660408301866107b9565b610c73606083018561071f565b8181036080830152610c858184610774565b905081810360a0830152610c9881610c0d565b90509695505050505050565b60008154610cb18161095b565b610cbb8186610739565b94506001821660008114610cd65760018114610cec57610d1f565b60ff198316865281151560200286019350610d1f565b610cf58561098c565b60005b83811015610d1757815481890152600182019150602081019050610cf8565b808801955050505b50505092915050565b600060c082019050610d3d600083018961071f565b8181036020830152610d4f8188610ca4565b9050610d5e60408301876107b9565b610d6b606083018661071f565b8181036080830152610d7d8185610ca4565b905081810360a0830152610d918184610ca4565b905097965050505050505056fea2646970667358221220f29f935027f2975f40feadb6209f1d63be9a3a96b7181c79d6ee1f96a7a06d3564736f6c634300081300334b50205461736b20323a20436c65616e206b69746368656e20737572666163657343686566205461736b20343a204d616e61676520666f6f6420696e76656e746f7279",
  "immutableReferences": {},
  "source": "// SPDX-License-Identifier: MIT\r\npragma solidity ^0.8.0;\r\n\r\ncontract TodoList {\r\n    uint public taskCount = 0;\r\n\r\n    struct Task {\r\n        uint id;\r\n        string content;\r\n        bool completed;\r\n        uint timestamp;\r\n        string role;        // \"chef\" or \"kp\" - for whom the task is intended\r\n        string completedBy; // \"chef\" or \"kp\" - who actually completed it\r\n    }\r\n\r\n    mapping(uint => Task) public tasks;\r\n\r\n    /**\r\n     * We include \"role\" and \"completedBy\" in both events to see them\r\n     * right in Ganache's logs when a task is created or toggled.\r\n     */\r\n    event TaskCreated(\r\n        uint id,\r\n        string content,\r\n        bool completed,\r\n        uint timestamp,\r\n        string role,\r\n        string completedBy\r\n    );\r\n\r\n    event TaskToggled(\r\n        uint id,\r\n        string content,\r\n        bool completed,\r\n        uint timestamp,\r\n        string role,\r\n        string completedBy\r\n    );\r\n\r\n    constructor() {\r\n        // Default Chef Tasks\r\n        createTask(\"Chef Task 1: Prepare ingredients\", \"chef\");\r\n        createTask(\"Chef Task 2: Cook main course\", \"chef\");\r\n        createTask(\"Chef Task 3: Garnish dishes\", \"chef\");\r\n        createTask(\"Chef Task 4: Manage food inventory\", \"chef\");\r\n        createTask(\"Chef Task 5: Prepare dessert\", \"chef\");\r\n\r\n        // Default Kitchen Porter (KP) Tasks\r\n        createTask(\"KP Task 1: Wash dishes\", \"kp\");\r\n        createTask(\"KP Task 2: Clean kitchen surfaces\", \"kp\");\r\n        createTask(\"KP Task 3: Take out trash\", \"kp\");\r\n        createTask(\"KP Task 4: Mop the floors\", \"kp\");\r\n        createTask(\"KP Task 5: Organize dishware\", \"kp\");\r\n    }\r\n\r\n    // Creates a new task. \r\n    function createTask(string memory _content, string memory _role) public {\r\n        taskCount++;\r\n        tasks[taskCount] = Task({\r\n            id: taskCount,\r\n            content: _content,\r\n            completed: false,\r\n            timestamp: block.timestamp,\r\n            role: _role,\r\n            completedBy: \"\"\r\n        });\r\n\r\n        // \"completedBy\" is empty at creation because it's not done yet\r\n        emit TaskCreated(\r\n            taskCount,\r\n            _content,\r\n            false,\r\n            block.timestamp,\r\n            _role,\r\n            \"\"\r\n        );\r\n    }\r\n\r\n    /**\r\n     * Toggles the task's completed status and records who completed it.\r\n     * If the task is being reverted to incomplete, set \"completedBy\" to an empty string.\r\n     */\r\n    function toggleCompleted(uint _taskId, string memory _completedBy) public {\r\n        Task storage task = tasks[_taskId];\r\n        task.completed = !task.completed;\r\n\r\n        if (task.completed) {\r\n            task.completedBy = _completedBy;\r\n        } else {\r\n            task.completedBy = \"\";\r\n        }\r\n\r\n        emit TaskToggled(\r\n            task.id,\r\n            task.content,\r\n            task.completed,\r\n            task.timestamp,\r\n            task.role,\r\n            task.completedBy\r\n        );\r\n    }\r\n}\r\n",
  "sourcePath": "C:\\Users\\Rabindra Wosti\\Desktop\\To_do_DAPP\\contracts\\TodoList.sol",
  "compiler": {
    "name": "solc",
    "version": "0.8.19+commit.7dd6d404.Emscripten.clang"
  },
  "schemaVersion": "3.4.16",
  "updatedAt": "2025-03-31T19:26:54.577Z",
  "networkType": "ethereum",
  "devdoc": {
    "kind": "dev",
    "methods": {},
    "version": 1
  },
  "userdoc": {
    "events": {
      "TaskCreated(uint256,string,bool,uint256,string,string)": {
        "notice": "We include \"role\" and \"completedBy\" in both events to see them right in Ganache's logs when a task is created or toggled."
      }
    },
    "kind": "user",
    "methods": {
      "toggleCompleted(uint256,string)": {
        "notice": "Toggles the task's completed status and records who completed it. If the task is being reverted to incomplete, set \"completedBy\" to an empty string."
      }
    },
    "version": 1
  }
}